{
  "_format": "hh-sol-artifact-1",
  "contractName": "Storage",
  "sourceName": "contracts/Storage.sol",
  "abi": [
    {
      "inputs": [
        {
          "internalType": "string",
          "name": "data_",
          "type": "string"
        }
      ],
      "stateMutability": "nonpayable",
      "type": "constructor"
    },
    {
      "anonymous": false,
      "inputs": [
        {
          "indexed": true,
          "internalType": "address",
          "name": "account",
          "type": "address"
        },
        {
          "indexed": false,
          "internalType": "string",
          "name": "_data",
          "type": "string"
        }
      ],
      "name": "DataSet",
      "type": "event"
    },
    {
      "inputs": [],
      "name": "getData",
      "outputs": [
        {
          "internalType": "string",
          "name": "",
          "type": "string"
        }
      ],
      "stateMutability": "view",
      "type": "function"
    },
    {
      "inputs": [
        {
          "internalType": "string",
          "name": "data_",
          "type": "string"
        }
      ],
      "name": "setData",
      "outputs": [],
      "stateMutability": "nonpayable",
      "type": "function"
    }
  ],
  "bytecode": "0x608060405234801561001057600080fd5b5060405161057038038061057083398101604081905261002f916100e2565b8051610042906000906020840190610049565b50506101f5565b828054610055906101a4565b90600052602060002090601f01602090048101928261007757600085556100bd565b82601f1061009057805160ff19168380011785556100bd565b828001600101855582156100bd579182015b828111156100bd5782518255916020019190600101906100a2565b506100c99291506100cd565b5090565b5b808211156100c957600081556001016100ce565b600060208083850312156100f4578182fd5b82516001600160401b038082111561010a578384fd5b818501915085601f83011261011d578384fd5b81518181111561012f5761012f6101df565b604051601f8201601f1916810185018381118282101715610152576101526101df565b6040528181528382018501881015610168578586fd5b8592505b81831015610189578383018501518184018601529184019161016c565b8183111561019957858583830101525b979650505050505050565b6002810460018216806101b857607f821691505b602082108114156101d957634e487b7160e01b600052602260045260246000fd5b50919050565b634e487b7160e01b600052604160045260246000fd5b61036c806102046000396000f3fe608060405234801561001057600080fd5b50600436106100365760003560e01c80633bc5de301461003b57806347064d6a14610059575b600080fd5b61004361006e565b6040516100509190610292565b60405180910390f35b61006c6100673660046101f1565b610100565b005b60606000805461007d906102e5565b80601f01602080910402602001604051908101604052809291908181526020018280546100a9906102e5565b80156100f65780601f106100cb576101008083540402835291602001916100f6565b820191906000526020600020905b8154815290600101906020018083116100d957829003601f168201915b5050505050905090565b8051610113906000906020840190610158565b50336001600160a01b03167f150183e5703e84d2fdb9942416f6b375833b0e47dd0c29ae9d2712f04aa668398260405161014d9190610292565b60405180910390a250565b828054610164906102e5565b90600052602060002090601f01602090048101928261018657600085556101cc565b82601f1061019f57805160ff19168380011785556101cc565b828001600101855582156101cc579182015b828111156101cc5782518255916020019190600101906101b1565b506101d89291506101dc565b5090565b5b808211156101d857600081556001016101dd565b60006020808385031215610203578182fd5b823567ffffffffffffffff8082111561021a578384fd5b818501915085601f83011261022d578384fd5b81358181111561023f5761023f610320565b604051601f8201601f191681018501838111828210171561026257610262610320565b6040528181528382018501881015610278578586fd5b818585018683013790810190930193909352509392505050565b6000602080835283518082850152825b818110156102be578581018301518582016040015282016102a2565b818111156102cf5783604083870101525b50601f01601f1916929092016040019392505050565b6002810460018216806102f957607f821691505b6020821081141561031a57634e487b7160e01b600052602260045260246000fd5b50919050565b634e487b7160e01b600052604160045260246000fdfea2646970667358221220aec63e13fb9035b57a3d23a48e8f6e7ce5e0a9f118c9932f1bb3c908c85f879d64736f6c63430008000033",
  "linkReferences": {},
  "deployedLinkReferences": {}
}